{
  "contractName": "ItemManager",
  "abi": [
    {
      "anonymous": false,
      "inputs": [
        {
          "indexed": true,
          "internalType": "address",
          "name": "previousOwner",
          "type": "address"
        },
        {
          "indexed": true,
          "internalType": "address",
          "name": "newOwner",
          "type": "address"
        }
      ],
      "name": "OwnershipTransferred",
      "type": "event"
    },
    {
      "anonymous": false,
      "inputs": [
        {
          "indexed": false,
          "internalType": "uint256",
          "name": "_itemIndex",
          "type": "uint256"
        },
        {
          "indexed": false,
          "internalType": "uint256",
          "name": "_step",
          "type": "uint256"
        },
        {
          "indexed": false,
          "internalType": "address",
          "name": "_address",
          "type": "address"
        }
      ],
      "name": "SupplyChainStep",
      "type": "event"
    },
    {
      "inputs": [
        {
          "internalType": "uint256",
          "name": "",
          "type": "uint256"
        }
      ],
      "name": "items",
      "outputs": [
        {
          "internalType": "contract Item",
          "name": "_item",
          "type": "address"
        },
        {
          "internalType": "enum ItemManager.SupplyChainSteps",
          "name": "_step",
          "type": "uint8"
        },
        {
          "internalType": "string",
          "name": "_identifier",
          "type": "string"
        }
      ],
      "stateMutability": "view",
      "type": "function",
      "constant": true
    },
    {
      "inputs": [],
      "name": "owner",
      "outputs": [
        {
          "internalType": "address",
          "name": "",
          "type": "address"
        }
      ],
      "stateMutability": "view",
      "type": "function",
      "constant": true
    },
    {
      "inputs": [],
      "name": "renounceOwnership",
      "outputs": [],
      "stateMutability": "nonpayable",
      "type": "function"
    },
    {
      "inputs": [
        {
          "internalType": "address",
          "name": "newOwner",
          "type": "address"
        }
      ],
      "name": "transferOwnership",
      "outputs": [],
      "stateMutability": "nonpayable",
      "type": "function"
    },
    {
      "inputs": [
        {
          "internalType": "string",
          "name": "_identifier",
          "type": "string"
        },
        {
          "internalType": "uint256",
          "name": "_priceInWei",
          "type": "uint256"
        }
      ],
      "name": "createItem",
      "outputs": [],
      "stateMutability": "nonpayable",
      "type": "function"
    },
    {
      "inputs": [
        {
          "internalType": "uint256",
          "name": "_index",
          "type": "uint256"
        }
      ],
      "name": "triggerPayment",
      "outputs": [],
      "stateMutability": "payable",
      "type": "function",
      "payable": true
    },
    {
      "inputs": [
        {
          "internalType": "uint256",
          "name": "_index",
          "type": "uint256"
        }
      ],
      "name": "triggerDelivery",
      "outputs": [],
      "stateMutability": "nonpayable",
      "type": "function"
    }
  ],
  "bytecode": "0x608060405234801561001057600080fd5b5061002d61002261003260201b60201c565b61003a60201b60201c565b6100fe565b600033905090565b60008060009054906101000a900473ffffffffffffffffffffffffffffffffffffffff169050816000806101000a81548173ffffffffffffffffffffffffffffffffffffffff021916908373ffffffffffffffffffffffffffffffffffffffff1602179055508173ffffffffffffffffffffffffffffffffffffffff168173ffffffffffffffffffffffffffffffffffffffff167f8be0079c531659141344cd1fd0a4f28419497f9722a3daafe3b4186f6b6457e060405160405180910390a35050565b611dd58061010d6000396000f3fe6080604052600436106200007a5760003560e01c80638da5cb5b11620000555780638da5cb5b14620000e7578063bfb231d21462000117578063cd31831e146200015d578063f2fde38b146200018b576200007a565b8063715018a6146200007f578063800fb83f14620000995780638c55174214620000b9575b600080fd5b3480156200008c57600080fd5b5062000097620001b9565b005b620000b76004803603810190620000b1919062000d13565b6200024a565b005b348015620000c657600080fd5b50620000e56004803603810190620000df919062000ea7565b620004f9565b005b348015620000f457600080fd5b50620000ff62000721565b6040516200010e919062000f52565b60405180910390f35b3480156200012457600080fd5b506200014360048036038101906200013d919062000d13565b6200074a565b6040516200015493929190620010ed565b60405180910390f35b3480156200016a57600080fd5b5062000189600480360381019062000183919062000d13565b62000831565b005b3480156200019857600080fd5b50620001b76004803603810190620001b1919062001162565b62000a37565b005b620001c362000b3a565b73ffffffffffffffffffffffffffffffffffffffff16620001e362000721565b73ffffffffffffffffffffffffffffffffffffffff16146200023c576040517f08c379a00000000000000000000000000000000000000000000000000000000081526004016200023390620011e4565b60405180910390fd5b62000248600062000b42565b565b60006001600083815260200190815260200160002060000160009054906101000a900473ffffffffffffffffffffffffffffffffffffffff1690503373ffffffffffffffffffffffffffffffffffffffff168173ffffffffffffffffffffffffffffffffffffffff1614620002f6576040517f08c379a0000000000000000000000000000000000000000000000000000000008152600401620002ed906200127c565b60405180910390fd5b348173ffffffffffffffffffffffffffffffffffffffff16633c8da5886040518163ffffffff1660e01b8152600401602060405180830381865afa15801562000343573d6000803e3d6000fd5b505050506040513d601f19601f82011682018060405250810190620003699190620012b5565b14620003ac576040517f08c379a0000000000000000000000000000000000000000000000000000000008152600401620003a39062001337565b60405180910390fd5b60006002811115620003c357620003c262000fda565b5b6001600084815260200190815260200160002060000160149054906101000a900460ff166002811115620003fc57620003fb62000fda565b5b146200043f576040517f08c379a00000000000000000000000000000000000000000000000000000000081526004016200043690620013cf565b60405180910390fd5b600180600084815260200190815260200160002060000160146101000a81548160ff021916908360028111156200047b576200047a62000fda565b5b02179055507fa4035636e99f06b7651a604c1019fa4e8779fe68ef27eeb74dff2de348f6199b826001600085815260200190815260200160002060000160149054906101000a900460ff166002811115620004db57620004da62000fda565b5b83604051620004ed9392919062001402565b60405180910390a15050565b6200050362000b3a565b73ffffffffffffffffffffffffffffffffffffffff166200052362000721565b73ffffffffffffffffffffffffffffffffffffffff16146200057c576040517f08c379a00000000000000000000000000000000000000000000000000000000081526004016200057390620011e4565b60405180910390fd5b60003082600254604051620005919062000c06565b6200059f9392919062001478565b604051809103906000f080158015620005bc573d6000803e3d6000fd5b5090508060016000600254815260200190815260200160002060000160006101000a81548173ffffffffffffffffffffffffffffffffffffffff021916908373ffffffffffffffffffffffffffffffffffffffff160217905550600060016000600254815260200190815260200160002060000160146101000a81548160ff0219169083600281111562000655576200065462000fda565b5b02179055508260016000600254815260200190815260200160002060010190805190602001906200068892919062000c14565b507fa4035636e99f06b7651a604c1019fa4e8779fe68ef27eeb74dff2de348f6199b60025460016000600254815260200190815260200160002060000160149054906101000a900460ff166002811115620006e857620006e762000fda565b5b83604051620006fa9392919062001402565b60405180910390a1600260008154809291906200071790620014e4565b9190505550505050565b60008060009054906101000a900473ffffffffffffffffffffffffffffffffffffffff16905090565b60016020528060005260406000206000915090508060000160009054906101000a900473ffffffffffffffffffffffffffffffffffffffff16908060000160149054906101000a900460ff1690806001018054620007a89062001560565b80601f0160208091040260200160405190810160405280929190818152602001828054620007d69062001560565b8015620008275780601f10620007fb5761010080835404028352916020019162000827565b820191906000526020600020905b8154815290600101906020018083116200080957829003601f168201915b5050505050905083565b6200083b62000b3a565b73ffffffffffffffffffffffffffffffffffffffff166200085b62000721565b73ffffffffffffffffffffffffffffffffffffffff1614620008b4576040517f08c379a0000000000000000000000000000000000000000000000000000000008152600401620008ab90620011e4565b60405180910390fd5b60016002811115620008cb57620008ca62000fda565b5b6001600083815260200190815260200160002060000160149054906101000a900460ff16600281111562000904576200090362000fda565b5b1462000947576040517f08c379a00000000000000000000000000000000000000000000000000000000081526004016200093e90620013cf565b60405180910390fd5b60026001600083815260200190815260200160002060000160146101000a81548160ff0219169083600281111562000984576200098362000fda565b5b02179055507fa4035636e99f06b7651a604c1019fa4e8779fe68ef27eeb74dff2de348f6199b816001600084815260200190815260200160002060000160149054906101000a900460ff166002811115620009e457620009e362000fda565b5b6001600085815260200190815260200160002060000160009054906101000a900473ffffffffffffffffffffffffffffffffffffffff1660405162000a2c9392919062001402565b60405180910390a150565b62000a4162000b3a565b73ffffffffffffffffffffffffffffffffffffffff1662000a6162000721565b73ffffffffffffffffffffffffffffffffffffffff161462000aba576040517f08c379a000000000000000000000000000000000000000000000000000000000815260040162000ab190620011e4565b60405180910390fd5b600073ffffffffffffffffffffffffffffffffffffffff168173ffffffffffffffffffffffffffffffffffffffff160362000b2c576040517f08c379a000000000000000000000000000000000000000000000000000000000815260040162000b23906200160b565b60405180910390fd5b62000b378162000b42565b50565b600033905090565b60008060009054906101000a900473ffffffffffffffffffffffffffffffffffffffff169050816000806101000a81548173ffffffffffffffffffffffffffffffffffffffff021916908373ffffffffffffffffffffffffffffffffffffffff1602179055508173ffffffffffffffffffffffffffffffffffffffff168173ffffffffffffffffffffffffffffffffffffffff167f8be0079c531659141344cd1fd0a4f28419497f9722a3daafe3b4186f6b6457e060405160405180910390a35050565b610772806200162e83390190565b82805462000c229062001560565b90600052602060002090601f01602090048101928262000c46576000855562000c92565b82601f1062000c6157805160ff191683800117855562000c92565b8280016001018555821562000c92579182015b8281111562000c9157825182559160200191906001019062000c74565b5b50905062000ca1919062000ca5565b5090565b5b8082111562000cc057600081600090555060010162000ca6565b5090565b6000604051905090565b600080fd5b600080fd5b6000819050919050565b62000ced8162000cd8565b811462000cf957600080fd5b50565b60008135905062000d0d8162000ce2565b92915050565b60006020828403121562000d2c5762000d2b62000cce565b5b600062000d3c8482850162000cfc565b91505092915050565b600080fd5b600080fd5b6000601f19601f8301169050919050565b7f4e487b7100000000000000000000000000000000000000000000000000000000600052604160045260246000fd5b62000d9a8262000d4f565b810181811067ffffffffffffffff8211171562000dbc5762000dbb62000d60565b5b80604052505050565b600062000dd162000cc4565b905062000ddf828262000d8f565b919050565b600067ffffffffffffffff82111562000e025762000e0162000d60565b5b62000e0d8262000d4f565b9050602081019050919050565b82818337600083830152505050565b600062000e4062000e3a8462000de4565b62000dc5565b90508281526020810184848401111562000e5f5762000e5e62000d4a565b5b62000e6c84828562000e1a565b509392505050565b600082601f83011262000e8c5762000e8b62000d45565b5b813562000e9e84826020860162000e29565b91505092915050565b6000806040838503121562000ec15762000ec062000cce565b5b600083013567ffffffffffffffff81111562000ee25762000ee162000cd3565b5b62000ef08582860162000e74565b925050602062000f038582860162000cfc565b9150509250929050565b600073ffffffffffffffffffffffffffffffffffffffff82169050919050565b600062000f3a8262000f0d565b9050919050565b62000f4c8162000f2d565b82525050565b600060208201905062000f69600083018462000f41565b92915050565b6000819050919050565b600062000f9a62000f9462000f8e8462000f0d565b62000f6f565b62000f0d565b9050919050565b600062000fae8262000f79565b9050919050565b600062000fc28262000fa1565b9050919050565b62000fd48162000fb5565b82525050565b7f4e487b7100000000000000000000000000000000000000000000000000000000600052602160045260246000fd5b600381106200101d576200101c62000fda565b5b50565b6000819050620010308262001009565b919050565b6000620010428262001020565b9050919050565b620010548162001035565b82525050565b600081519050919050565b600082825260208201905092915050565b60005b838110156200109657808201518184015260208101905062001079565b83811115620010a6576000848401525b50505050565b6000620010b9826200105a565b620010c5818562001065565b9350620010d781856020860162001076565b620010e28162000d4f565b840191505092915050565b600060608201905062001104600083018662000fc9565b62001113602083018562001049565b8181036040830152620011278184620010ac565b9050949350505050565b6200113c8162000f2d565b81146200114857600080fd5b50565b6000813590506200115c8162001131565b92915050565b6000602082840312156200117b576200117a62000cce565b5b60006200118b848285016200114b565b91505092915050565b7f4f776e61626c653a2063616c6c6572206973206e6f7420746865206f776e6572600082015250565b6000620011cc60208362001065565b9150620011d98262001194565b602082019050919050565b60006020820190508181036000830152620011ff81620011bd565b9050919050565b7f4f6e6c79206974656d732061726520616c6c6f77656420746f2075706461746560008201527f207468656d73656c766573000000000000000000000000000000000000000000602082015250565b600062001264602b8362001065565b9150620012718262001206565b604082019050919050565b60006020820190508181036000830152620012978162001255565b9050919050565b600081519050620012af8162000ce2565b92915050565b600060208284031215620012ce57620012cd62000cce565b5b6000620012de848285016200129e565b91505092915050565b7f4e6f742066756c6c792070616964207965740000000000000000000000000000600082015250565b60006200131f60128362001065565b91506200132c82620012e7565b602082019050919050565b60006020820190508181036000830152620013528162001310565b9050919050565b7f4974656d206973206675727468657220696e2074686520737570706c7920636860008201527f61696e0000000000000000000000000000000000000000000000000000000000602082015250565b6000620013b760238362001065565b9150620013c48262001359565b604082019050919050565b60006020820190508181036000830152620013ea81620013a8565b9050919050565b620013fc8162000cd8565b82525050565b6000606082019050620014196000830186620013f1565b620014286020830185620013f1565b62001437604083018462000f41565b949350505050565b60006200144c8262000f79565b9050919050565b600062001460826200143f565b9050919050565b620014728162001453565b82525050565b60006060820190506200148f600083018662001467565b6200149e6020830185620013f1565b620014ad6040830184620013f1565b949350505050565b7f4e487b7100000000000000000000000000000000000000000000000000000000600052601160045260246000fd5b6000620014f18262000cd8565b91507fffffffffffffffffffffffffffffffffffffffffffffffffffffffffffffffff8203620015265762001525620014b5565b5b600182019050919050565b7f4e487b7100000000000000000000000000000000000000000000000000000000600052602260045260246000fd5b600060028204905060018216806200157957607f821691505b6020821081036200158f576200158e62001531565b5b50919050565b7f4f776e61626c653a206e6577206f776e657220697320746865207a65726f206160008201527f6464726573730000000000000000000000000000000000000000000000000000602082015250565b6000620015f360268362001065565b9150620016008262001595565b604082019050919050565b600060208201905081810360008301526200162681620015e4565b905091905056fe608060405234801561001057600080fd5b5060405161077238038061077283398181016040528101906100329190610134565b816000819055508060028190555082600360006101000a81548173ffffffffffffffffffffffffffffffffffffffff021916908373ffffffffffffffffffffffffffffffffffffffff160217905550505050610187565b600080fd5b600073ffffffffffffffffffffffffffffffffffffffff82169050919050565b60006100b98261008e565b9050919050565b60006100cb826100ae565b9050919050565b6100db816100c0565b81146100e657600080fd5b50565b6000815190506100f8816100d2565b92915050565b6000819050919050565b610111816100fe565b811461011c57600080fd5b50565b60008151905061012e81610108565b92915050565b60008060006060848603121561014d5761014c610089565b5b600061015b868287016100e9565b935050602061016c8682870161011f565b925050604061017d8682870161011f565b9150509250925092565b6105dc806101966000396000f3fe6080604052600436106100385760003560e01c80632986c0e51461024e5780633c8da5881461027957806383d12eef146102a457610240565b36610240576000543414610081576040517f08c379a000000000000000000000000000000000000000000000000000000000815260040161007890610364565b60405180910390fd5b6000600154146100c6576040517f08c379a00000000000000000000000000000000000000000000000000000000081526004016100bd906103d0565b60405180910390fd5b34600160008282546100d89190610429565b925050819055506000600360009054906101000a900473ffffffffffffffffffffffffffffffffffffffff1673ffffffffffffffffffffffffffffffffffffffff163460025460405160240161012e919061048e565b6040516020818303038152906040527f800fb83f000000000000000000000000000000000000000000000000000000007bffffffffffffffffffffffffffffffffffffffffffffffffffffffff19166020820180517bffffffffffffffffffffffffffffffffffffffffffffffffffffffff83818316178352505050506040516101b89190610523565b60006040518083038185875af1925050503d80600081146101f5576040519150601f19603f3d011682016040523d82523d6000602084013e6101fa565b606091505b505090508061023e576040517f08c379a000000000000000000000000000000000000000000000000000000000815260040161023590610586565b60405180910390fd5b005b34801561024c57600080fd5b005b34801561025a57600080fd5b506102636102cf565b604051610270919061048e565b60405180910390f35b34801561028557600080fd5b5061028e6102d5565b60405161029b919061048e565b60405180910390f35b3480156102b057600080fd5b506102b96102db565b6040516102c6919061048e565b60405180910390f35b60025481565b60005481565b60015481565b600082825260208201905092915050565b7f576520646f6e277420737570706f7274207061727469616c207061796d656e7460008201527f7300000000000000000000000000000000000000000000000000000000000000602082015250565b600061034e6021836102e1565b9150610359826102f2565b604082019050919050565b6000602082019050818103600083015261037d81610341565b9050919050565b7f4974656d20697320616c72656164792070616964210000000000000000000000600082015250565b60006103ba6015836102e1565b91506103c582610384565b602082019050919050565b600060208201905081810360008301526103e9816103ad565b9050919050565b6000819050919050565b7f4e487b7100000000000000000000000000000000000000000000000000000000600052601160045260246000fd5b6000610434826103f0565b915061043f836103f0565b9250827fffffffffffffffffffffffffffffffffffffffffffffffffffffffffffffffff03821115610474576104736103fa565b5b828201905092915050565b610488816103f0565b82525050565b60006020820190506104a3600083018461047f565b92915050565b600081519050919050565b600081905092915050565b60005b838110156104dd5780820151818401526020810190506104c2565b838111156104ec576000848401525b50505050565b60006104fd826104a9565b61050781856104b4565b93506105178185602086016104bf565b80840191505092915050565b600061052f82846104f2565b915081905092915050565b7f44656c697665727920646964206e6f7420776f726b0000000000000000000000600082015250565b60006105706015836102e1565b915061057b8261053a565b602082019050919050565b6000602082019050818103600083015261059f81610563565b905091905056fea264697066735822122065ddb943c0d6ab719b9f5a7d10a3b03dfe8022fdc2314628a6bac661ad83a6b964736f6c634300080e0033a26469706673582212203960bfb3be0b122aef9da4a27bf4ab2b867e468448f7a23679bb8f7a4b2f20b164736f6c634300080e0033",
  "immutableReferences": {},
  "source": "//SPDX-License-Identifier: MIT\r\n\r\npragma solidity ^0.8.7;\r\n\r\nimport \"./Item.sol\";\r\nimport \"./Ownable.sol\";\r\n\r\ncontract ItemManager is Ownable {\r\n\r\n    struct S_Item {\r\n        Item _item;\r\n        ItemManager.SupplyChainSteps _step;\r\n        string _identifier;\r\n    }\r\n    mapping(uint => S_Item) public items;\r\n    uint index;\r\n\r\n    enum SupplyChainSteps {Created, Paid, Delivered}\r\n\r\n    event SupplyChainStep(uint _itemIndex, uint _step, address _address);\r\n\r\n    function createItem(string memory _identifier, uint _priceInWei) public onlyOwner {\r\n        Item item = new Item(this, _priceInWei, index);\r\n        items[index]._item = item;\r\n        items[index]._step = SupplyChainSteps.Created;\r\n        items[index]._identifier = _identifier;\r\n        emit SupplyChainStep(index, uint(items[index]._step), address(item));\r\n        index++;\r\n    }\r\n\r\n    function triggerPayment(uint _index) public payable {\r\n        Item item = items[_index]._item;\r\n        require(address(item) == msg.sender, \"Only items are allowed to update themselves\");\r\n        require(item.priceInWei() == msg.value, \"Not fully paid yet\");\r\n        require(items[_index]._step == SupplyChainSteps.Created, \"Item is further in the supply chain\");\r\n        items[_index]._step = SupplyChainSteps.Paid;\r\n        emit SupplyChainStep(_index, uint(items[_index]._step), address(item));\r\n    }\r\n\r\n    function triggerDelivery(uint _index) public onlyOwner {\r\n        require(items[_index]._step == SupplyChainSteps.Paid, \"Item is further in the supply chain\");\r\n        items[_index]._step = SupplyChainSteps.Delivered;\r\n        emit SupplyChainStep(_index, uint(items[_index]._step), address(items[_index]._item));\r\n    }\r\n}",
  "sourcePath": "C:\\Users\\12And\\Desktop\\TruffleReact\\contracts\\ItemManager.sol",
  "compiler": {
    "name": "solc",
    "version": "0.8.14+commit.80d49f37.Emscripten.clang"
  },
  "schemaVersion": "3.4.7",
  "updatedAt": "2022-05-30T10:27:29.427Z",
  "networkType": "ethereum",
  "devdoc": {
    "kind": "dev",
    "methods": {
      "owner()": {
        "details": "Returns the address of the current owner."
      },
      "renounceOwnership()": {
        "details": "Leaves the contract without owner. It will not be possible to call `onlyOwner` functions anymore. Can only be called by the current owner. NOTE: Renouncing ownership will leave the contract without an owner, thereby removing any functionality that is only available to the owner."
      },
      "transferOwnership(address)": {
        "details": "Transfers ownership of the contract to a new account (`newOwner`). Can only be called by the current owner."
      }
    },
    "version": 1
  },
  "userdoc": {
    "kind": "user",
    "methods": {},
    "version": 1
  }
}